S01300004C515F756172745F696E742E73726563AF
S1130000F8FF002011040000BF220000BF220000FE
S1130010BF220000BF220000BF220000BF22000058
S1130020BF220000BF220000BF220000BF22000048
S1130030BF220000BF220000BF220000BF22000038
S1130040BF220000BF220000BF220000BF22000028
S1130050BF220000BF220000BF220000BF22000018
S1130060BF220000BF220000BF220000BF22000008
S1130070BF220000BF220000BF220000BF220000F8
S1130080BF220000BF220000BF220000BF220000E8
S1130090BF220000BF220000BF220000BF220000D8
S11300A0BF220000BF220000BF220000BF220000C8
S11300B0BF220000BF220000BF220000BF220000B8
S11300C0BF220000BF220000BF220000BF220000A8
S11300D0BF220000BF220000BF220000BF22000098
S11300E0BF220000BF220000BF220000BF22000088
S11300F0BF220000BF220000BF220000BF22000078
S1130100BF220000BF220000BF2200000121000026
S1130110BF220000BF220000BF220000BF22000057
S1130120BF220000BF220000BF220000BF22000047
S1130130BF220000BF220000BF220000BF22000037
S1130140BF220000BF220000BF220000BF22000027
S113015065200000BF220000BF220000BF22000073
S1130160BF220000BF220000BF220000BF22000007
S1130170BF220000BF220000BF220000BF220000F7
S1130180BF220000BF220000BF220000BF220000E7
S1130190BF220000BF220000BF220000BF220000D7
S11301A0BF220000E9200000BF220000BF2200009F
S11301B0BF220000BF220000BF220000BF220000B7
S11301C0BF220000BF220000BF220000BF220000A7
S11301D0BF220000BF220000BF220000BF22000097
S11301E0BF220000BF220000BF220000BF22000087
S1130400FFFFFFFFFFFFFFFFFFFFFFFFFEFFFFFFF9
S11304104FF000004FF000014FF000024FF00003D6
S11304204FF000044FF000054FF000064FF00007B6
S11304304FF000084FF000094FF0000A4FF0000B96
S11304404FF0000C62B601F079FEFEE700000000F8
S1130450000000000000000000000000000000F8A0
S113046000000000000000333000000000100C0603
S1130470100C0600000000000000000040C078409E
S1130480C0784000043F04043F040400007088FC6A
S113049008300000001820FF211E0000F008F000C2
S11304A0E018000000211C031E211E0000F0088833
S11304B0700000001E2123241927211010160E009D
S11304C0000000000000000000000000000000E048
S11304D0180402000000000718204000000204185D
S11304E0E00000000040201807000000404080F0B9
S11304F0804040000202010F01020200000000F0EF
S1130500000000000101011F0101010000000000C2
S11305100000000080B07000000000000000000037
S113052000000000000101010101010100000000C0
S11305300000000000303000000000000000000057
S113054080601804006018060100000000E0100834
S11305500810E000000F102020100F00001010F809
S1130560000000000020203F202000000070080848
S113057008887000003028242221300000300888C8
S1130580884830000018202020110E000000C020F0
S113059010F8000000070424243F240000F8088811
S11305A0880808000019212020110E0000E010889E
S11305B088180000000F112020110E0000380808D0
S11305C0C83808000000003F0000000000708808E0
S11305D008887000001C222121221C0000E0100861
S11305E00810E0000000312222110F00000000C0BA
S11305F0C000000000000030300000000000008057
S11306000000000000008060000000000000804046
S1130610201008000001020408102000404040405F
S113062040404000040404040404040000081020B2
S113063040800000002010080402010000704808F7
S11306400808F0000000003036010000C030C8285F
S1130650E810E0000718272423140B000000C0381A
S1130660E0000000203C23020227382008F8888894
S113067088700000203F202020110E00C0300808A0
S113068008083800071820202010080008F8080877
S11306900810E000203F202020100F0008F8888870
S11306A0E8081000203F20202320180008F888883C
S11306B0E8081000203F200003000000C0300808B4
S11306C00838000007182020221E020008F808003D
S11306D00008F808203F210101213F20000808F804
S11306E0080800000020203F202000000000080827
S11306F0F8080800C08080807F00000008F888C0E7
S113070028180800203F20012638200008F8080097
S113071000000000203F20202020300008F8F800CE
S1130720F8F80800203F003F003F200008F830C0E0
S11307300008F808203F200007183F00E0100808D0
S11307400810E0000F10202020100F0008F80808FF
S11307500808F000203F210101010000E010080812
S11307600810E0000F18242438504F0008F8888837
S113077088887000203F2000030C30200070880817
S1130780080838000038202121221C00180808F825
S1130790080818000000203F2000000008F80800A6
S11307A00008F808001F202020201F000878880077
S11307B000C83808000007380E010000F80800F8E7
S11307C00008F800033C0700073C03000818688091
S11307D08068180820302C03032C30200838C80007
S11307E0C83808000000203F200000001008080856
S11307F0C83808002038262120201800000000FEF8
S1130800020202000000007F40404000000C30C0A3
S113081000000000000000010638C00000020202CF
S1130820FE000000004040407F0000000000040281
S113083002020400000000000000000000000000AC
S1130840000000008080808080808080000202049C
S11308500000000000000000000000000000808094
S1130860808000000019242222223F2008F8008002
S113087080000000003F112020110E0000000080C5
S113088080800000000E1120202011000000008054
S11308908088F800000E112020103F200000808086
S11308A080800000001F222222221300008080F09A
S11308B0888888180020203F2020000000008080C5
S11308C080808000006B94949493600008F800800A
S11308D080800000203F210000203F200080989865
S11308E0000000000020203F2020000000000080C5
S11308F09898000000C08080807F000008F8000005
S113090080808000203F24022D302000000808F859
S1130910000000000020203F202000008080808014
S113092080808000203F20003F20003F80800080A6
S113093080800000203F210000203F2000008080B4
S113094080800000001F202020201F008080008065
S11309508000000080FFA12020110E000000008014
S113096080808000000E112020A0FF808080800005
S11309708080800020203F21200001000000808032
S1130980808080000033242424241900008080E027
S1130990808000000000001F2020000080800000F4
S11309A000808000001F202020103F2080808000D5
S11309B00080808000010E300806010080800080E5
S11309C0008080800F300C030C300F00008080000A
S11309D0808080000020312E0E3120008080800035
S11309E00080808080818E701806010000808080E5
S11309F0808080000021302C222130000000000083
S1130A00807C020200000000003F40400000000023
S1130A10FF00000000000000FF0000000002027C54
S1130A20800000000040403F00000000000601017B
S1130A3002020404000000000000000030B400239F
S1130A40DFF8BC2412684FF47A7462438A4201D2FC
S1130A5000209EE0802303FB01F3B2FBF3F44FF686
S1130A60FF739C4280F017810723C0B2002840F036
S1130A709280DFF890542C60402404FB01F4B2FB14
S1130A80F4F44FF6FF75AC4260D20623C0B20028DE
S1130A9040F09180DFF86C542C604C01B2FBF4F40C
S1130AA04FF6FF75AC4251D20523C0B2002840F086
S1130AB09280DFF850542C600C01B2FBF4F44FF632
S1130AC0FF75AC4242D20423C0B2002840F09380A8
S1130AD0DFF830542C60CC00B2FBF4F44FF6FF7511
S1130AE0AC4233D20323C0B2002840F09480DFF834
S1130AF014542C608C00B2FBF4F44FF6FF75AC4236
S1130B0024D20223C0B2002840F09580DFF8F453C9
S1130B102C604C00B2FBF4F44FF6FF75AC4215D2D6
S1130B200123C0B2002840F09680DFF8D8532C602F
S1130B30B2FBF1F44FF6FF718C4207D20023C0B22E
S1130B40002840F09880DFF8BC130C60C0B2002885
S1130B5040F0A380DFF8B003006850F08070DFF845
S1130B60A8130860DBB213F0070050F00800DFF8A8
S1130B709C130860DFF8980300210160DFF89403F8
S1130B8000210160DFF89003DFF878130968016041
S1130B90012030BC7047C0B2012803D1DFF87C5378
S1130BA02C6069E7C0B2022803D1DFF874532C60CB
S1130BB062E70020EDE7C0B2012803D1DFF85C53FF
S1130BC02C606AE7C0B2022803D1DFF854532C60CA
S1130BD063E70020DDE7C0B2012803D1DFF83C530E
S1130BE02C6069E7C0B2022803D1DFF834532C60CB
S1130BF062E70020CDE7C0B2012803D1DFF81C531F
S1130C002C6068E7C0B2022803D1DFF814532C60CB
S1130C1061E70020BDE7C0B2012803D1DFF8FC5230
S1130C202C6067E7C0B2022803D1DFF8F4522C60CD
S1130C3060E70020ADE7C0B2012803D1DFF8DC5241
S1130C402C6066E7C0B2022803D1DFF8D4522C60CE
S1130C505FE700209DE7C0B2012803D1DFF8BC5252
S1130C602C6065E7C0B2022803D1DFF8B4522C60CF
S1130C705EE700208DE7C0B2012803D1DFF89C12A3
S1130C800C6063E7C0B2022803D1DFF894120C6051
S1130C905CE700207DE700207BE7C0B201281ED17D
S1130CA0DFF86402006850F00070DFF85C1208603E
S1130CB0DBB213F0070050F00800DFF86812086098
S1130CC0DFF8640200210160DFF8600200210160A6
S1130CD0DFF85C02DFF844120968016058E7C0B22B
S1130CE002281ED1DFF84C02006850F08070DFF853
S1130CF044120860DBB213F0070050F00800DFF87C
S1130D0038120860DFF8340200210160DFF8300295
S1130D1000210160DFF82C02DFF804120968016089
S1130D2036E7002035E718B442F211739A4201D332
S1130D30002061E0C0B2002860D1724B1B680093B0
S1130D40009B5B1C5A4342F21073B2FBF3F2C0B235
S1130D50002824D1C9B20B00002B022B05D9DB1EBD
S1130D605CD05B1E032B69D975E0774B1B684FF48D
S1130D7000742343744C2360C9B28B0003F1804395
S1130D8013F592234FF44074DC60C9B26F4B2824EE
S1130D9043F83140C9B26D4B13EBC1035A60C0B282
S1130DA0012818D1C9B2002957D1674B1B6853F4E5
S1130DB08063654C2360C9B2654B4FF4407443F8BB
S1130DC02140C9B2634B282443F83140C9B2614B76
S1130DD013EBC1035A60C0B202280CD1C9B2002976
S1130DE03DD1C9B25C48282340F83130C9B25A48D1
S1130DF010EBC1004260012012BC7047C0B2012850
S1130E0003D1464B1B6800939AE7C0B2022803D172
S1130E10434B1B68009393E70020EDE74A4B1B68A4
S1130E2053F40063484C2360C9B28B0003F1804340
S1130E3013F596234FF480645C60A6E7424B1B686D
S1130E4053F48053404C2360C9B2444B4FF4806444
S1130E5043F8214099E70020CEE70020CCE70020AA
S1130E60CAE781B042F211739A4201D3002019E01B
S1130E70C0B2002818D1234B1B680093009B5B1C55
S1130E805A4342F21073B2FBF3F2C0B2002823D1EA
S1130E90C9B2002903D0022919D015D31AE0304869
S1130EA00260012001B07047C0B2012803D11B4B7E
S1130EB01B680093E2E7C0B2022803D1184B1B68F9
S1130EC00093DBE70020EDE726480260E9E72648C7
S1130ED00260E6E70020E5E7C0B2012805D1C9B207
S1130EE01C4810EBC1004260DBE7C0B2022805D108
S1130EF0C9B2194810EBC1004260D2E70020D1E723
S1130F009805FF1F8405FF1F3C80044000800340B8
S1130F10048003404C800340088003408805FF1F81
S1130F208C05FF1F00900340049003404C90034045
S1130F30089003403080044000800B4004800B4044
S1130F404C800B4008800B40388004400C800340E8
S1130F5000A004400C9003400C800B4000C00440EF
S1130F601080034018800340208003400821DFF8EC
S1130F703824126852F40032DFF82C341A6000BFAF
S1130F80DFF82424126832F48042DFF81C341A603B
S1130F9000BF19E0DFF81024126832F40042DFF8D1
S1130FA008341A60DFF80024126852F48042DFF833
S1130FB0F8331A6000BFDFF8F023126832F480427D
S1130FC0DFF8E4331A6040000A00511ED2B2002A4E
S1130FD00AD00206DED5DFF8D023126852F40042AC
S1130FE0DFF8C4331A60DDE7704700000821DFF83A
S1130FF0B823126832F40032DFF8AC331A60DFF839
S1131000A823126832F48042DFF89C331A6019E096
S1131010DFF89423126832F40042DFF88C331A604C
S1131020DFF88423126852F48042DFF87C331A60BC
S113103000BFDFF87423126832F48042DFF86833AB
S11310401A6040000A00511ED2B2002A0AD00206D9
S1131050DED5DFF85423126852F40042DFF8483337
S11310601A60DDE7704710B50400B1F15000C0B25A
S1131070FFF7BCFFE4B2200950F01000C0B2FFF744
S1131080B5FF14F00F0050F00100C0B2FFF7AEFF3F
S113109010BD70B50400002508E02000C0B2FFF7C1
S11310A065FF761CF6B2802EF7D36D1CEDB2082DC9
S11310B00CD2B5F15000C0B2FFF798FF0120FFF742
S11310C095FF1020FFF792FF0026EBE770BD07E0C5
S11310D043F226410A00511E92B2002AFAD1401E60
S11310E080B20028F4D1704780B5DFF8C0024FF415
S11310F080710160DFF8B8024FF480710160DFF89D
S1131100B4024FF480710160DFF8AC024FF48071D7
S11311100160DFF8A8025FF470310160DFF8880233
S1131120006850F48040DFF880120860DFF878022D
S1131130006830F48030DFF8701208603220FFF766
S1131140C6FFDFF86402006850F48030DFF85812FC
S11311500860AE20FFF74AFF0020FFF747FF10208A
S1131160FFF744FF4020FFF741FF8120FFF73EFFD8
S1131170CF20FFF73BFFA120FFF738FFC820FFF780
S113118035FFA620FFF732FFA820FFF72FFF3F20EF
S1131190FFF72CFFD320FFF729FF0020FFF726FFDE
S11311A0D520FFF723FF8020FFF720FFD920FFF78A
S11311B01DFFF120FFF71AFFDA20FFF717FF1220B7
S11311C0FFF714FFDB20FFF711FF4020FFF70EFFAE
S11311D02020FFF70BFF0220FFF708FF8D20FFF709
S11311E005FF1420FFF702FFA420FFF7FFFEA6204F
S11311F0FFF7FCFEAF20FFF7F9FE0020FFF749FFE1
S113120000210020FFF72FFFFF20FFF742FF64209B
S113121000F0D8F80020FFF73CFF642000F0D2F87B
S113122001BD2DE9FC4104000D00002600275FF0FC
S113123000084FF47A7092FBF0F08DF800004FF440
S11312407A7092FBF0F100FB1120642190FBF1F025
S11312508DF80100642092FBF0F100FB11200A21BB
S113126090FBF1F08DF802000A2092FBF0F100FBF4
S113127011208DF803000020804610E0F6B2300102
S113128050FA87F0DFF838114018007AFFF76EFE45
S11312907F1CFFB2082FF1D3083418F101085FFA5C
S11312A088F8B8F1040F28D25FFA88F800A818F873
S11312B0000010F11006E4B2792C01D300246D1C57
S11312C02900C9B22000C0B2FFF7CDFE002709E013
S11312D0F6B2300150FA87F0DFF8E410405CFFF713
S11312E045FE7F1CFFB2082FF2D3691CC9B220004F
S11312F0C0B2FFF7B8FE0027CBE7BDE8F3812DE9C4
S1131300F84304000D00160000275FF000085FF0AA
S1131310000913E0FFB2380150FA88F0DFF8A0109A
S11313204018007AFFF722FE18F101085FFA88F8E6
S1131330B8F1080FEED3083419F101095FFA89F9FD
S113134019F8060000282CD05FFA89F919F806006C
S1131350B0F12007E4B2792C01D300246D1C2900DC
S1131360C9B22000C0B2FFF77EFE5FF000080AE0B9
S1131370FFB2380150FA88F0DFF84410405CFFF700
S1131380F5FD18F101085FFA88F8B8F1080FEFD3FA
S1131390691CC9B22000C0B2FFF765FE5FF0000807
S11313A0C4E7BDE8F183000000F00F40389004402A
S11313B03C900440409004404490044014F00F409A
S11313C04C0400000E49096851F001010C4A1160F7
S11313D00C4908600C48052101600C48006850F075
S11313E001000A490860094800680006FBD507485F
S11313F0006840084000054908607047000000008C
S11314003880044008000440040004400000044004
S113141010B5002400F04AF90C22C849C84800F06D
S1131420AAFA08E09EA206213C20FFF768FF4FF4C9
S11314307A70FFF7C7FF00F07EFB0028F2D199A273
S113144006213C20FFF75BFF4FF4FA70FFF7BAFF69
S113145000F0AFFB11E094A204210020FFF74FFF3E
S1131460B8480068424204212820FFF7DAFEB64853
S1131470827906210020FFF7D4FEB44802780021C7
S11314802820FFF7CEFEB04800F079FB0028F4D105
S1131490AD480078AC49497851EA0020AC49097854
S11314A0AC4A42F82100AA480078AA4951F8200021
S11314B00011A7490978A74A42F82100A248807878
S11314C0A149C97851EA0020A1490978A24A42F801
S11314D021009F480078A04951F8200000119C4940
S11314E009789D4A42F8210097480079964949793C
S11314F051EA002096490978984A42F82100944814
S11315000078964951F82000001191490978934ACE
S113151042F821008E4800788E4951F82000B0F539
S1131520006F0BDB8A4800788A4951F82000B0F537
S1131530805087490978874A42F821008448007816
S1131540854951F82000B0F5006F0BDB8048007826
S1131550814951F82000B0F580507D4909787E4AD0
S113156042F821007A4800787C4951F82000B0F50F
S1131570006F0BDB76480078784951F82000B0F50D
S1131580805073490978754A42F821007048007800
S1131590401C6F4908706E48007814287FF467AFC8
S11315A000241BE06E480068E4B26A4951F8241034
S11315B008186B4908606B480068E4B2664951F842
S11315C024100818674908605E480068E4B263495B
S11315D051F8241008185B490860641CE4B2142C08
S11315E0E0D35F480068142190FBF1F05C49086087
S11315F05C480068142190FBF1F05A490860514896
S11316000068142190FBF1F04E49086054480068CA
S113161000280BD444A200210020FFF770FE50489C
S1131620026800212820FFF7FCFD0BE03FA2002107
S11316300020FFF764FE4A48006842420021282047
S1131640FFF7EFFD4748006800280BD438A20221B9
S11316500020FFF754FE4348026802212820FFF7C8
S1131660E0FD0BE033A202210020FFF748FE3D48D5
S11316700068424202212820FFF7D3FD3148006868
S113168000283FF5E8AE2CA204210020FFF737FE26
S11316902C48026804212820FFF7C3FDE7E6000078
S11316A0657272006F6B00007A3A2D0080B572B6D5
S11316B0FFF71AFD00F078F94FF47A710120FFF773
S11316C0BDF941F2883200210120FFF72CFB41F2E1
S11316D0883200210120FFF7C4FB2348006850F43E
S11316E000602149086021482149016021480068BF
S11316F030F010001F490860592000F092FA4EF6AD
S11317006021002000F0E4FA002000F010FB5FF4F8
S1131710E132194801680A4800F030F833210848DA
S113172000F038F962B601BD783A2B00783A2D0002
S1131730793A2B00793A2D007A3A2B0010230000D5
S113174000D006405C05FF1F6005FF1FA005FF1FBA
S1131750A105FF1F6404FF1FB404FF1F0405FF1F3E
S11317605405FF1F5805FF1F3880044010B0044083
S113177001010A0094F00F409805FF1F30B45C4B40
S1131780984208D15B4B4FF440741C605A4B4FF4A1
S113179040741C603AE0594B984208D1584B4FF4BE
S11317A040741C60574B4FF440741C602EE0564B41
S11317B0984208D1554B4FF440741C60544B4FF47D
S11317C040741C6022E0534B984208D1524B4FF4B2
S11317D040741C60514B4FF440741C6016E0504B35
S11317E0984208D14F4B4FF440741C604E4B4FF459
S11317F040741C600AE04D4B984207D14C4B4FF4A7
S113180040741C604B4B4FF440741C60384B98423E
S113181006D1494B1B6853F48063474C23602DE089
S1131820364B984206D1444B1B6853F40063424C38
S1131830236023E0344B984206D13F4B1B6853F49A
S113184080533D4C236019E0324B984206D13A4B09
S11318501B6853F40053384C23600FE0304B98421C
S113186006D1364B1B6853F48063344C236005E087
S1131870324B1B6853F40063304C2360C37813F07D
S1131880F303C37000238370194B984208D00023DC
S11318901A4CA04204D053F00003DBB2002B00D05A
S11318A049184FF47A7303FB01F31401B3FBF4F307
S11318B0047814F0E0049BB21D0A15F01F052C43B4
S11318C0047043704FF4FA4461431201B1FBF2F126
S11318D09BB2B1EB4311827A12F0E00411F01F01C4
S11318E021438172C17851F00C01C17030BC704742
S11318F000A0064018C004401CC0044000B00640CC
S113190010B004400CB0044000C006400CC00440B9
S113191008C0044000D0064044B0044040B0044035
S113192000A00E4060D0044064D0044000B00E40DB
S113193020D0044024D00440348004402880044053
S1131940002200E0521C4FF6BB339A4206D20379C0
S11319509B06F7D5C0790870012006E04FF6BB302E
S1131960824201D3002000E0002070470279120671
S1131970FCD5C1717047F8B504000D0016000027AE
S113198004E0795D2000FFF7F1FF7F1CB6B2B74297
S1131990F7DBF1BD80B5C27852F02002C270C9B243
S11319A0080000F03EF901BD80B5002301220C219E
S11319B0DFF8540200F0E8F9012301220221DFF8E4
S11319C04C0200F0E1F9002301220D21DFF8380276
S11319D000F0DAF90023012201218C4800F0D4F947
S11319E0002300220A218A4800F0CEF901230022B4
S11319F00021864800F0C8F901BD38B5040000256F
S1131A0019E0E4B2E209D2B20121804800F006FAFA
S1131A106400012301220D217B4800F0B5F90A215D
S1131A207B4800F00CFA0443002301220D21764880
S1131A3000F0AAF96D1C082DE3DB2000C0B232BD12
S1131A4038B504000D000023012202216F4800F084
S1131A509BF92000C0B2FFF7D0FF04002800C0B2F9
S1131A60FFF7CBFF012301220221684800F08CF923
S1131A702000C0B232BD10B50400002301220221AF
S1131A80624800F081F92000C0B2FFF7B6FF0020E1
S1131A90FFF7B3FF04000123012202215B4800F099
S1131AA073F92000C0B210BDF8B504000D00160093
S1131AB0002301220221554800F066F92000C0B23B
S1131AC0FFF79BFF0400002705E00020FFF795FFC8
S1131AD0FFB278557F1CFFB2F6B2B742F5D30123AB
S1131AE001220221494800F04FF92000C0B2F2BDA2
S1131AF0F8B504000D00160000230122022143481A
S1131B0000F042F92000C0B2FFF777FF040000277D
S1131B1004E02878FFF771FF6D1C7F1CFFB2F6B25A
S1131B20B742F6D3012301220221384800F02CF9F0
S1131B302000C0B2F2BD00B583B000A835490CC97D
S1131B400CC008390838052200A93020FFF7D0FF5F
S1131B50052200A91020FFF7A7FF002000E0401C89
S1131B60C0B2052804D2C0B200A9415CA529F6D0B0
S1131B70C0B2052801D0012000E000200EBD38B518
S1131B8004000720FFF777FF05002900C9B22720CA
S1131B90FFF756FF68060AD5202221006120FFF7CF
S1131BA083FFFF21E220FFF74BFF002000E001202C
S1131BB032BD80B5002301220C21134800F0E4F863
S1131BC0052215492A20FFF793FF01212120FFF761
S1131BD037FF01212220FFF733FF28212520FFF7BB
S1131BE02FFF20213120FFF72BFF0F212620FFF7A5
S1131BF027FF0F212020FFF723FF012301220C21BF
S1131C00014800F0C1F801BD00F00F4000F10F40A1
S1131C1040F00F402C2300005C04FF1F254908609E
S1131C2070475C2800DB5B20202190FBF1F1002948
S1131C3003D0022929D014D33AE00121202290FBB9
S1131C40F2F303FB120399401B4A11600121202285
S1131C5090FBF2F303FB120311FA03F01749086037
S1131C6026E00121202290FBF2F303FB12039940AA
S1131C70134A11600121202290FBF2F303FB1203AB
S1131C8011FA03F00F49086012E00121202290FBB1
S1131C90F2F303FB120399400B4A11600121202245
S1131CA090FBF2F303FB120311FA03F007490860F7
S1131CB07047000008ED00E080E200E000E100E091
S1131CC084E200E004E100E088E200E008E100E0F2
S1131CD02A4A126852F40002284B1A60284A1268F1
S1131CE032F00202264B1A60254A126852F00102B1
S1131CF0234B1A60C0B20201224BD150C0B2214919
S1131D0011EB0011896851F00101C0B21D4A12EBB8
S1131D1000129160C0B21B4911EB0011896831F0C7
S1131D200201C0B2174A12EB00108160704780B5FF
S1131D30C0B2144911EB0011896851F00201C0B21C
S1131D40104A12EB00129160C0B2002805D002289C
S1131D500BD006D303280CD00EE04420FFF761FF1C
S1131D600AE04520FFF75DFF06E04620FFF759FF34
S1131D7002E04720FFF755FF01BD00003C8004400E
S1131D80007003400071034070B405001D4EAD1B8C
S1131D9008D0403D08D0403D08D0403D08D0403DEB
S1131DA008D009E0184C07E0184C05E0184C03E093
S1131DB0184C01E0184CFFE74FF4807544F82150AB
S1131DC0012A15D1426901248C4022434261012B2E
S1131DD006D10268012313FA01F1114301600EE0F8
S1131DE00268012313FA01F132EA0101016006E0FD
S1131DF04269012313FA01F132EA0101416170BC25
S1131E007047000000F00F400090044000A0044020
S1131E1000B0044000C0044000D00440012A06D1B0
S1131E200268012313FA01F11143016006E002681C
S1131E30012313FA01F132EA0101016070470069DC
S1131E4001228A401040C840C0B27047DFF800F059
S1131E501104FF1F80B57348006850F4785071492D
S1131E6008601021052000F02FF86F4908606E48C3
S1131E7000684FF47A7148436C4908606B48006805
S1131E806B490968C1F30361491CB0FBF1F069496E
S1131E90086000F003F800F00CF801BD6648006823
S1131EA050F480506449086064484FF4E061016074
S1131EB070476348006850F0010061490860614858
S1131EC04FF4A0610160704780B50A00C0B20928D0
S1131ED001D30020A4E0D2B2112A01D301209FE053
S1131EE0594A00231370594A126852F08052574BD2
S1131EF01A60574A127852F08002554B1A70554AAC
S1131F0098231370544A1278D206FBD4524A12789A
S1131F10C2F38102D2B2022AF8D1504A0E231370BE
S1131F204F4A00231370C0B200280BD002281FD0E0
S1131F3013D3042832D026D3062845D039D3072812
S1131F404DD056E00123002200210020FFF77EFF40
S1131F5043484121017032214BE003230122012136
S1131F600020FFF773FF3E485A210170642140E0CE
S1131F700323012201210020FFF768FF384858217C
S1131F800170782135E00123002200210020FFF7B1
S1131F905DFF33484021017030212AE005230222ED
S1131FA002210020FFF752FF2D484F210170962196
S1131FB01FE00723022202210020FFF747FF2848E1
S1131FC05E210170B42114E00723022202210020C3
S1131FD0FFF73CFF22485E210170CF2109E008236E
S1131FE0022202210020FFF731FF1D485E2101700B
S1131FF0E121194800788006FBD51748007840068F
S1132000FBD51448007810F03F00124A10701248B3
S11320100078C0F38100C0B20328F8D10800C0B230
S113202002BD0000388004409405FF1F9005FF1F87
S1132030448004409805FF1F048004401890044025
S1132040408004400CB00440014006403480044009
S113205008C00740004006400640064004400640D1
S11320600540064080B572B62D480088411C2C4AB4
S113207011804FF47A7180B2884207D12848002138
S1132080018028480078401C2649087026480078BA
S1132090002803D124480121017002E022480021D4
S11320A0017022480078401C204908701F480078BD
S11320B0012807D00DD3032806D004D3052805D062
S11320C003D306E005E004E003E002E01748002142
S11320D001701748006850F001001549086000209D
S11320E0FFF725FE62B601BD72B6124810210160E9
S11320F00C480078401C0B49087062B67047000019
S113210080B572B600A90C48FFF71AFC002804D069
S11321109DF800100848FFF729FC62B601BD0000D5
S11321209C05FF1FA005FF1F9F05FF1F9E05FF1FA6
S11321300C710340A0B0044000D0064080B500F00C
S113214055F800F005F8FFF785FEFFF761F901BDCA
S113215080B51C481C4988420BD0002006E0194970
S1132160194A52F8202041F82020401CB0F5826F13
S1132170F5D31448FFF752FD1449154A1548801A3F
S113218003E013780B70521C491C0300581E002BEB
S1132190F7D111491148401A02E000220A70491C83
S11321A00200501E002AF8D10D490E4A0E48801A2A
S11321B003E013780B70521C491C0300581E002BBB
S11321C0F7D101BD0000FF1F000000005C04FF1FE9
S11321D0342300003C2300006404FF1FA205FF1FFA
S11321E01004FF1F242200007022000080B500F0BC
S11321F009F80A4800884FF6FE710840074908802C
S113220001BD000072B606484CF22051018004481A
S11322104DF62811018062B6704700000020054089
S11322200E20054070B4104C24680F4D2D6855F4F1
S11322307F050D4E3560090611F0706151EA00709A
S1132240110511F470010843190411F470210843B5
S113225006490860002000E0401CC0B29842FBD34D
S11322600148046070BC704700F0014044800440A1
S113227010B5084979441C31074C7C441A34A142F6
S113228006D0081D0A68511888470146A142F8D1B2
S113229010BD00BF2C0000003800000050F8041BE3
S11322A061B150F8042BD30744BFA9F101039A1874
S11322B0002342F8043B091FFAD1EFE77047704747
S11322C0DDFFFFFF400100006404FF1F0000000069
S11322D000F009F8002801D0FFF7CAFF0020FFF73B
S11322E097F800F002F80120704700F001B80000F0
S11322F00746384600F002F8FBE7000080B5C04608
S1132300C046024A11001820ABBEFBE726000200BB
S113231048656C6C6F20576F726C6421000000007C
S1132320C046C046C046C046FFF7D2FFA5A5A5A536
S10F2330A5000000344310100100000060
S9032321B8
