S01A000050687973696F6C6F676963616C54657374732E73726563A0
S1130000F8FF0020110400009B1A00009B1A000056
S11300109B1A00009B1A00009B1A00009B1A000008
S11300209B1A00009B1A00009B1A00009B1A0000F8
S11300309B1A00009B1A00009B1A00009B1A0000E8
S11300409B1A00009B1A00009B1A00009B1A0000D8
S11300509B1A00009B1A00009B1A00009B1A0000C8
S11300609B1A00009B1A00009B1A00009B1A0000B8
S11300709B1A00009B1A00009B1A00009B1A0000A8
S11300809B1A00009B1A00009B1A00009B1A000098
S11300909B1A00009B1A00009B1A00009B1A000088
S11300A09B1A00009B1A00009B1A00009B1A000078
S11300B09B1A00009B1A00009B1A00009B1A000068
S11300C09B1A00009B1A00009B1A00009B1A000058
S11300D09B1A00009B1A00009B1A00009B1A000048
S11300E09B1A00009B1A00009B1A00009B1A000038
S11300F09B1A00009B1A00009B1A00009B1A000028
S11301009B1A00009B1A00009B1A00005137000044
S11301109B1A00009B1A00009B1A00009B1A000007
S11301209B1A00009B1A00009B1A00009B1A0000F7
S11301309B1A00009B1A00009B1A000099370000CC
S11301409B1A00009B1A00009B1A00009B1A0000D7
S1130150553200009B1A00009B1A00009B1A0000F5
S11301609B1A00009B1A00009B1A00009B1A0000B7
S11301709B1A00009B1A00009B1A00009B1A0000A7
S11301809B1A00009B1A00009B1A00009B1A000097
S11301909B1A00009B1A00009B1A00009B1A000087
S11301A0B13700009B1A00009B1A0000D5370000ED
S11301B09B1A00009B1A00009B1A00009B1A000067
S11301C09B1A00009B1A00009B1A00009B1A000057
S11301D09B1A00009B1A00009B1A00009B1A000047
S11301E09B1A00009B1A00009B1A00009B1A000037
S1130400FFFFFFFFFFFFFFFFFFFFFFFFFEFFFFFFF9
S11304104FF000004FF000014FF000024FF00003D6
S11304204FF000044FF000054FF000064FF00007B6
S11304304FF000084FF000094FF0000A4FF0000B96
S11304404FF0000C62B603F03FFEFEE710B5002447
S113045000F002FB00F060FC09E0DFF8D82700217F
S1130460002000F02FFF4FF47A7000F08DFF01F0B0
S113047078F80028F1D1DFF8C0270021002000F02F
S113048021FF4FF4FA7000F07FFF00F01AFD01F035
S1130490A6F805E00020DFF8A417087000F011FDAD
S11304A07AE0DFF89C070078012808D14FF4E16175
S11304B0002001F0D8F80020DFF884170870DFF876
S11304C084070078012808D1DFF87C17002001F0A8
S11304D0CAF80020DFF86C170870DFF8700700789E
S11304E0012807D10021002001F0BDF80020DFF829
S11304F05C170870DFF858070078012823D14FF4FF
S1130500E161002001F0AFF8DFF84807D0E90023EB
S11305100020DFF8441701F01FF901F0FFF9DFF8BC
S11305203C17096888420EDA3F2001F068FA00207F
S1130530DFF8281708600021002001F094F800205B
S1130540DFF80C170870DFF818070078012823D1AA
S1130550DFF8F416002001F086F8DFF8F806D0E999
S113056000230020DFF8F01601F0F6F801F0D6F9C8
S1130570DFF8E816096881420EDB3E2001F03FFAFD
S11305800020DFF8D81608600021002001F06BF885
S11305900020DFF8CC1608700120DFF8D8160870A8
S11305A0DFF8C006007800283DD1DCA2022100203B
S11305B000F088FEDFF8B006027802211E2000F069
S11305C046FDD7A202213C2000F07CFEDFF8A806FD
S11305D002780221642000F03AFDDFF8A02604210D
S11305E0002000F06FFEDFF85406027804211E207C
S11305F000F02DFDDFF8882604213C2000F062FE87
S1130600DFF8700602780421642000F020FDE2A2E5
S113061006213C2000F056FEDFF850060268062151
S1130620552000F076FDDFF84806007800287FF4B6
S113063061AF0120DFF838160870DFF8480601F0D2
S11306402DFA00F03EFCD5A20021002000F03AFE75
S1130650DFF830260021142000F034FE002405E0E9
S11306600020E4B2DFF81C166054641CE4B20A2CC7
S1130670F6DBDFF81406007801287FF412AF0020BF
S1130680DFF804160870DFF8CC25D2E90001012256
S1130690DFF8F83501F0C6FB04D23220DFF8F0159C
S11306A0088027E0DFF8AC25D2E900010122DFF859
S11306B0DC3501F0CFFB0ED8DFF89825D2E9000134
S11306C00122DFF8D03501F0ADFB04D20020DFF8C1
S11306D0C01508800EE0DFF87C25D2E90001012274
S11306E0DFF8B03501F0B6FB04D87FF03100DFF855
S11306F0A015088000200021DFF85825C2E9000178
S11307000CE0D0A20621002000F0DCFDDFF8880513
S1130710B0F900200621192000F0FBFC0020DFF8CE
S113072054150870DFF84805007800281FD101200F
S1130730DFF83C150870DFF84C0501F0AFF900F064
S1130740C0FB96A20021002000F0BCFDDFF8342598
S11307500021142000F0B6FD002405E00020E4B2DE
S1130760DFF820156054641CE4B20A2CF6DBDFF8D1
S1130770CC04007801283FF48DAEDFF8200500F0AA
S113078014FF002840F0DB80DFF814050078DFF860
S113079014150870DFF804050078DFF804150870F4
S11307A0DFF8F8040078DFF8F414497851EA0020FF
S11307B0DFF8F4140978DFF8F42442F82100DFF8B4
S11307C0E8040078DFF8E41451F820000011DFF8A1
S11307D0D8140978DFF8D42442F82100DFF8C804DB
S11307E00078DFF8C81451F82000B0F5006F0FDB73
S11307F0DFF8B4040078DFF8B41451F82000B0F541
S11308008050DFF8A4140978DFF8A02442F821000E
S1130810DFF89404007800280BD1DFF89004006816
S1130820DFF88C140860DFF884040068DFF88414AF
S11308300860DFF87C040068DFF86C140978DFF8DE
S11308406C2452F82110884209DBDFF85C0400783C
S1130850DFF8581451F82000DFF854140860DFF86A
S113086048040078DFF8441451F82000DFF84414F9
S11308700968884209DBDFF830040078DFF82C14BB
S113088051F82000DFF82C140860DFF81C0400780D
S1130890401CDFF814140870DFF80C0400780528F5
S11308A02AD10020DFF80014087000240CE0DFF8DF
S11308B008040068E4B2DFF8F41351F824100818AF
S11308C0DFF8F4130860641CE4B2052CEFDBDFF8F6
S11308D0E8030068DFF8DC130968401ADFF8D01376
S11308E00968401A032190FBF1F0DFF8D013086087
S11308F00020DFF8C4130860DFF8C0030068002894
S113090010D451A206213C2000F0DCFCDFF8AC033B
S113091002680621502000F06AFC10E0423A000010
S1130920453A000049A206213C2000F0CBFCDFF848
S11309308C03006842420621502000F058FCC9484C
S1130940007800287FF4EAAEDFF874030078012809
S11309500ED1DFF84403B0F90000B0F50760B0F53C
S1130960346FDFF83C030178DFF8580301F06CFBC7
S1130970DFF854030068002812D535A200213C207A
S113098000F0A0FCDFF8400300684242002155203B
S113099000F0BFFB10E000BF42563A00433A0000AB
S11309A02CA200213C2000F08DFCDFF81C0302681F
S11309B00021552000F0ADFB9BA20221002000F095
S11309C081FCA948027802211E2000F040FB97A276
S11309D002213C2000F076FCDFF89C020278022120
S11309E05A2000F034FBDFF894220421002000F0A8
S11309F069FC9248027804211E2000F028FBDFF8ED
S1130A00802204213C2000F05DFCDFF868020278BB
S1130A1004215A2000F01BFBDFF87C02B0F900002F
S1130A200128BFF66EAE82A20621002000F04AFC27
S1130A30DFF86402B0F9000042420621192000F0F8
S1130A4068FB6BE6503A2B00782B0000782D0000F1
S1130A50443A2D00443A2B0080B572B6002301229B
S1130A601921DFF8680201F0FFFA002301220321B3
S1130A70DFF8580201F0F8FA012001F057FB0023D7
S1130A8001220321DFF8480201F0EEFA00230122DB
S1130A900421DFF8400201F0E7FA002301220621D5
S1130AA0DFF8300201F0E0FA01220421DFF8240229
S1130AB001F024FB00220621DFF8180201F01EFBDE
S1130AC000F028FA00F086FC4FF47A71002001F05F
S1130AD06FFC00220221002001F0DFFDDFF8F82185
S1130AE0DFF8F811DFF8F80101F038FF4FF49670E1
S1130AF001F030FF01F0BDFEDFF8E801006850F4BA
S1130B008060DFF8E011086040F20310DFF8D811CC
S1130B100860DFF8D801006850F40070DFF8CC11E9
S1130B200860DFF8AC01006830F40070DFF8A01151
S1130B3008604FF4FA71012001F03AFCDFF8B001CB
S1130B40006850F04000DFF8A8110860002200217E
S1130B50012001F0A2FDDFF88C01006850F48060F0
S1130B60DFF880110860DFF88C01DFF88C11086071
S1130B70DFF87801006830F00200DFF870110860D7
S1130B80DFF87801006850F00200DFF870110860A7
S1130B90DFF86C01006850F01F00DFF86411086092
S1130BA0DFF84001006850F40050DFF838110860A5
S1130BB0DFF84001DFF84C110860DFF84C010068F1
S1130BC030F08070DFF840110860DFF84001006801
S1130BD050F08070DFF834110860DFF834010068E9
S1130BE050F01F00DFF8281108605B2000F0BFFE02
S1130BF04FF41652DFF81C010168DFF8C80001F059
S1130C0041F93321DFF8BC0001F023FA4EF66021EC
S1130C10002001F0F3FE002001F01FFF002144201A
S1130C2000F02EFF62B601BD423A0000453A0000D2
S1130C30503A2D00784200009C4200008005FF1FBE
S1130C407005FF1F7105FF1FF8F8FFFF7205FF1FF6
S1130C507305FF1F7004FF1F00C04E40F004FF1F08
S1130C607405FF1F7905FF1F8105FF1FE004FF1FA7
S1130C705E04FF1F8A05FF1F8205FF1FB4420000A8
S1130C80BC420000E404FF1F7605FF1F000049403A
S1130C906E05FF1F000059406605FF1F0405FF1F76
S1130CA08705FF1F8805FF1F8905FF1F8804FF1F95
S1130CB00005FF1FFC04FF1FF404FF1FF804FF1FBF
S1130CC08305FF1F00D00640D804FF1F00F10F402A
S1130CD040F00F4080F00F409A99993ECDCC4C3DA6
S1130CE09A99D93F3880044024A0044054F00F401E
S1130CF0009003400001090004A00440C0A0044087
S1130D00C8A0044060D0044014F10F40C0D0044097
S1130D10C8D004406005FF1F80B5A5210F4801F02D
S1130D2093F95A210D4801F08FF901210B4801F084
S1130D308BF90021094801F087F90021074801F0E7
S1130D4083F90021054801F07FF90021034801F0EF
S1130D507BF90A2000F018FB01BD000000D006401A
S1130D600821DFF80826126852F40032DFF8FC3557
S1130D701A6000BFDFF8F425126832F48042DFF80D
S1130D80EC351A6000BF19E0DFF8E025126832F490
S1130D900042DFF8D8351A60DFF8D025126852F423
S1130DA08042DFF8C8351A6000BFDFF8C02512683A
S1130DB032F48042DFF8B4351A6040000A00511E54
S1130DC0D2B2002A0AD00206DED5DFF8A0251268C6
S1130DD052F40042DFF894351A60DDE770470000F2
S1130DE00821DFF88825126832F40032DFF87C35F8
S1130DF01A60DFF87825126832F48042DFF86C3527
S1130E001A6019E0DFF86425126832F40042DFF852
S1130E105C351A60DFF85425126852F48042DFF81A
S1130E204C351A6000BFDFF84425126832F4804262
S1130E30DFF838351A6040000A00511ED2B2002A89
S1130E400AD00206DED5DFF82425126852F40042E7
S1130E50DFF818351A60DDE7704710B50400B1F10A
S1130E605000C0B2FFF7BCFFE4B2200950F01000FC
S1130E70C0B2FFF7B5FF14F00F0050F00100C0B28C
S1130E80FFF7AEFF10BD70B50400002508E0200098
S1130E90C0B2FFF765FF761CF6B2802EF7DB6D1C3F
S1130EA0EDB2082D0CDAB5F15000C0B2FFF798FF8F
S1130EB00120FFF795FF1020FFF792FF0026EBE7D4
S1130EC070BD38B5002407E00020FFF749FF6D1C12
S1130ED0EDB2802DF8DB641CE4B2082C0CDAB4F11A
S1130EE05000C0B2FFF77CFF0120FFF779FF10200C
S1130EF0FFF776FF0025EBE731BD07E043F226411B
S1130F000A00511E92B2002AFAD1401E80B2002873
S1130F10F4D1704780B54FF48070DFF85414086042
S1130F204FF48070DFF84C1408604FF48070DFF8E1
S1130F30481408604FF48070DFF8401408605FF4D0
S1130F407030DFF83C140860DFF82004006850F4C7
S1130F508040DFF818140860DFF81004006830F4EB
S1130F608030DFF8081408603220FFF7C6FFDFF88E
S1130F70FC03006850F48030DFF8F0130860AE2002
S1130F80FFF72EFF0020FFF72BFF1020FFF728FFAD
S1130F904020FFF725FF8120FFF722FFCF20FFF736
S1130FA01FFFA120FFF71CFFC820FFF719FFA62091
S1130FB0FFF716FFA820FFF713FF3F20FFF710FFEE
S1130FC0D320FFF70DFF0020FFF70AFFD520FFF71E
S1130FD007FF8020FFF704FFD920FFF701FFF1206E
S1130FE0FFF7FEFEDA20FFF7FBFE1220FFF7F8FE04
S1130FF0DB20FFF7F5FE4020FFF7F2FE2020FFF78D
S1131000EFFE0220FFF7ECFE8D20FFF7E9FE14202F
S1131010FFF7E6FEA420FFF7E3FEA620FFF7E0FEBD
S1131020AF20FFF7DDFE0020FFF72DFF0021002099
S1131030FFF713FFFF20FFF726FF642000F0A4F959
S11310400020FFF720FF642000F09EF901BD2DE988
S1131050FC4104000D00002600275FF00008642016
S113106092FBF0F08DF80000642092FBF0F100FB9D
S113107011200A2190FBF1F08DF801000A2092FB67
S1131080F0F100FB11208DF802000020804610E0F2
S1131090F6B2300150FA87F0DFF8E8124018007A0F
S11310A0FFF75EFE7F1CFFB2082FF1DB083418F156
S11310B001085FFA88F8B8F1030F28DA5FFA88F8B4
S11310C000A818F8000010F11006E4B2792C01DB36
S11310D000246D1C2900C9B22000C0B2FFF7BDFE78
S11310E0002709E0F6B2300150FA87F0DFF89412D5
S11310F0405CFFF735FE7F1CFFB2082FF2DB691C52
S1131100C9B22000C0B2FFF7A8FE0027CBE7BDE8B4
S1131110F3812DE9FC4104000D00002600275FF057
S113112000084FF47A7092FBF0F08DF800004FF451
S11311307A7092FBF0F100FB1120642190FBF1F036
S11311408DF80100642092FBF0F100FB11200A21CC
S113115090FBF1F08DF802000A2092FBF0F100FB05
S113116011208DF803000020804610E0F6B2300113
S113117050FA87F0DFF80C124018007AFFF7F0FD00
S11311807F1CFFB2082FF1DB083418F101085FFA65
S113119088F8B8F1040F28DA5FFA88F800A818F87C
S11311A0000010F11006E4B2792C01DB00246D1C60
S11311B02900C9B22000C0B2FFF74FFE002709E0A2
S11311C0F6B2300150FA87F0DFF8B811405CFFF74F
S11311D0C7FD7F1CFFB2082FF2DB691CC9B22000D7
S11311E0C0B2FFF73AFE0027CBE7BDE8F3812DE953
S11311F0F04186B004000D00002600275FF00008CF
S113120042F2107092FBF0F000904FF47A7092FB6F
S1131210F0F00A2190FBF1F301FB1300019064202C
S113122092FBF0F00A2190FBF1F301FB1300029012
S11312300A2092FBF0F00A2190FBF1F301FB13006A
S113124003900A2092FBF0F100FB1120049000208F
S113125080460DE017EB0610DFF828114018007ADD
S1131260FFF77EFD7F1C082FF4DB083418F101081A
S1131270B8F1050F23DA00A850F8280010F1100681
S1131280E4B2792C01DB00246D1C2900C9B22000D2
S1131290C0B2FFF7E2FD002707E017EB0610DFF806
S11312A0E410405CFFF75CFD7F1C082FF5DB691C34
S11312B0C9B22000C0B2FFF7D0FD0027D3E706B0C3
S11312C0BDE8F0812DE9F84304000D001600002765
S11312D05FF000085FF0000913E0FFB2380150FA34
S11312E088F0DFF8A0104018007AFFF739FD18F1F4
S11312F001085FFA88F8B8F1080FEEDB083419F139
S113130001095FFA89F919F8060000282CD05FFA60
S113131089F919F80600B0F12007E4B2792C01DB51
S113132000246D1C2900C9B22000C0B2FFF795FD4E
S11313305FF000080AE0FFB2380150FA88F0DFF8E5
S11313404410405CFFF70CFD18F101085FFA88F8BF
S1131350B8F1080FEFDB691CC9B22000C0B2FFF777
S11313607CFD5FF00008C4E7BDE8F18300F00F40A6
S1131370389004403C900440409004404490044021
S113138014F00F40C03800000E49096851F0010103
S11313900C4A11600C49086005200C4908600C488F
S11313A0006850F001000A49086009480068000616
S11313B0FBD50748006840084000054908607047AD
S11313C00000000038800440080004400400044089
S11313D00000044080B5002301220C21DFF85402F0
S11313E000F042FE012301220221DFF84C0200F04A
S11313F03BFE002301220D21DFF8380200F034FE09
S11314000023012201218C4800F02EFE002300223B
S11314100A218A4800F028FE012300220021864880
S113142000F022FE01BD38B50400002519E0E4B245
S1131430E209D2B20121804800F060FE6400012379
S113144001220D217B4800F00FFE0A217B4800F0A9
S113145066FE0443002301220D21764800F004FEB9
S11314606D1C082DE3DB2000C0B232BD38B504008A
S11314700D000023012202216F4800F0F5FD200039
S1131480C0B2FFF7D0FF04002800C0B2FFF7CBFFC3
S1131490012301220221684800F0E6FD2000C0B2C9
S11314A032BD10B50400002301220221624800F07D
S11314B0DBFD2000C0B2FFF7B6FF0020FFF7B3FF4B
S11314C004000123012202215B4800F0CDFD20002D
S11314D0C0B210BDF8B504000D00160000230122AF
S11314E00221554800F0C0FD2000C0B2FFF79BFF69
S11314F00400002705E00020FFF795FFFFB27855B0
S11315007F1CFFB2F6B2B742F5D3012301220221B8
S1131510494800F0A9FD2000C0B2F2BDF8B50400AE
S11315200D001600002301220221434800F09CFD17
S11315302000C0B2FFF777FF0400002704E02878FA
S1131540FFF771FF6D1C7F1CFFB2F6B2B742F6D3F2
S1131550012301220221384800F086FD2000C0B298
S1131560F2BD00B583B000A835490CC90CC00839D8
S11315700838052200A93020FFF7D0FF052200A972
S11315801020FFF7A7FF002000E0401CC0B2052890
S113159004DAC0B200A9415CA529F6D0C0B205287E
S11315A001D0012000E000200EBD38B50400072062
S11315B0FFF777FF05002900C9B22720FFF756FF80
S11315C068060AD50A2221006120FFF783FFFF2164
S11315D0E220FFF74BFF002000E0012032BD80B580
S11315E0002301220C21134800F03EFD0522154979
S11315F02A20FFF793FF01212120FFF737FF012164
S11316002220FFF733FF28212520FFF72FFF0A218F
S11316103120FFF72BFF0F212620FFF727FF0F2193
S11316202020FFF723FF012301220C21014800F0B1
S11316301BFD01BD00F00F4000F10F4040F00F40D2
S1131640C44200006004FF1F3E4800683E49088011
S11316503E4800883C49098808183C490880002015
S113166038490860704780B5012928DBC0B20028DA
S113167012D140F6A760814201DB40F6A6613448EE
S1131680006830F40070324908604FF4FA520021C7
S1131690012001F09FF853E040F6A760814201DB8E
S11316A040F6A6612A48006830F480502849086052
S11316B04FF4FA520021012001F08CF840E0002997
S11316C01AD1C0B200280BD12148006830F4007050
S11316D01F49086000220021012001F07BF82FE05F
S11316E01B48006830F4805019490860002200212A
S11316F0012001F06FF823E0C0B2002810D1154892
S1131700814200DA13491248006850F4007010490D
S113171008604FF4FA520021012001F05BF80FE059
S11317200C48814200DA0B490948006850F48050A3
S1131730074908604FF4FA520021012001F04AF8E9
S113174001BD000004800B406405FF1F6605FF1FF8
S113175040F00F405AF1FFFFB0B581EA030C0CF0E2
S1131760004C40F2FF7515EA11541DBF15EA1357DA
S1131770AC42AF4239E0E41923EA455343F4801301
S1131780C90241F0004141EA505EC7021100A7FBC3
S1131790020200284FF00000EEFB01204FF0000190
S11317A0E3FB072118BF42F0010240180021494120
S11317B0E3FB0E01A4F580640F0302D25200404102
S11317C0494154F101046CDD470872F1004250F1C3
S11317D0000051EB0451A1F580115CBF41EA0C01FA
S11317E0B0BD4CEA05510020B0BD05EA1357AC4228
S11317F014BFAF4241E050EA410E1CBF52EA430E0F
S113180002E061460020B0BD24423C441BD15FEAA3
S1131810070EF6D0090302BF01460020AEF1140EF4
S1131820B1FA81F7AEEB070401FA07FE0C37C7F1F2
S1131830200100FA07F7C8404EEA000E23EA455398
S113184043F48013A2E733F00043B3FA83F704BFF1
S1131850B2FA82FE77440B3FE41BB7F1200E2FBF90
S113186002FA0EF3BB40C7F1200E22FA0EFE38BF77
S113187043EA0E03BA40641C82E750EA410E14BFE7
S113188052EA430E6FF000014FF4001717EB430FB9
S11318908ABF194617EB410FB5E74CEA0551002002
S11318A0B0BDD4F10104B4F120070FDAC4F120076C
S11318B0520828BF42F0010210FA07F501FA07F7AF
S11318C0E1BF2A43E0403843E1400FE0352C98DC87
S11318D0C7F1200452EA400220FA07F218BF42F08E
S11318E0010231FA07F0A1400A43002172F10042DB
S11318F050F1000051EB0C01B0BD50F8041B61B174
S113190050F8042BD30744BFA9F101039A1800230C
S113191042F8043B091FFAD1EFE77047F446400D43
S113192040EAC120490006D200F00EF8004248BF48
S11319306FF00040604700F007F84FF00041884224
S11319408CBF08464042604740F00040490DA1F575
S11319508061491C05D4D1F11F0154BFC840C01790
S113196070474FF0000070473B49086070475C289F
S113197000DB5B20202190FBF1F1002903D0022938
S113198029D014D33AE00121202290FBF2F303FB87
S113199012039940314A11600121202290FBF2F395
S11319A003FB120311FA03F02D49086026E001211C
S11319B0202290FBF2F303FB12039940294A1160A1
S11319C00121202290FBF2F303FB120311FA03F02E
S11319D02549086012E00121202290FBF2F303FB69
S11319E012039940214A11600121202290FBF2F355
S11319F003FB120311FA03F01D49086070475C28C9
S1131A0000DB5B20202190FBF1F1002903D00229A7
S1131A1017D00BD31FE00121202290FBF2F303FB2C
S1131A20120311FA03F01349086014E00121202283
S1131A3090FBF2F303FB120311FA03F00E49086062
S1131A4009E00121202290FBF2F303FB120311FAB7
S1131A5003F00A490860704708ED00E080E200E006
S1131A6000E100E084E200E004E100E088E200E05C
S1131A7008E100E080E100E084E100E088E100E0CA
S1131A805C2800DB5B20102900DB0F2100F16040A3
S1131A9010F5644009010170704770472DE9F04763
S1131AA0002600275FF0010A814605E05FF0000A86
S1131AB05FF0010819F1010999F800002A2800F0E3
S1131AC0288199F800002B284CD02D2860D02E288E
S1131AD045D0302824D0312825D0322826D03328A8
S1131AE028D0342829D035282AD036282BD0372896
S1131AF02CD038282DD039282ED0412800F09280BF
S1131B00422800F0A580442800F088804E286BD03D
S1131B10502853D0522800F0B48053287AD0C9E01A
S1131B2000240025C6E00024A54DC3E000245FF096
S1131B308045BFE00024A34DBCE00024A24DB9E0E1
S1131B400024A24DB6E00024A14DB3E00024A14D31
S1131B50B0E00024A04DADE00024A04DAAE0002494
S1131B609F4DA7E001209F49087000209E490870FE
S1131B7000209E49087000209D49087000209D495E
S1131B80087000209C49087000209C49087091E06E
S1131B90002094490870012093490870002093495B
S1131BA008700020924908700020924908700020B3
S1131BB0914908700020914908707BE00020894910
S1131BC008700020884908700120884908700020A6
S1131BD087490870002087490870002086490870EA
S1131BE000208649087065E000207E4908700020C6
S1131BF07D49087000207D49087001207C490870E7
S1131C0000207C49087000207B49087000207B4933
S1131C1008704FE001207A4908704BE001207949AF
S1131C20087047E000206F49087000206E49087072
S1131C3000206E49087000206D49087001206D492C
S1131C40087000206C49087000206C49087031E06D
S1131C50002064490870002063490870002063492B
S1131C600870002062490870002062490870012051
S1131C7061490870002061490870002062490880A9
S1131C8018E00020574908700020574908700020C8
S1131C9056490870002056490870002055490870BC
S1131CA00020554908700120544908700020564905
S1131CB00880FFE700204A4922002B0000F0FAFECA
S1131CC03FF4F4AEBAF1010F0CD100204F493200B9
S1131CD03B00FFF741FD22002B0000F0FBFE060055
S1131CE00F0013E00A2000FB08F000F067FF020079
S1131CF00B002000290000F077FF32003B0000F0C9
S1131D00E9FE06000F000A2000FB08F819F101099A
S1131D10D2E635480078012803D0324800780128FB
S1131D2009D134480078002805D13F20FFF71FFE71
S1131D300020374908603748C0E900673148007817
S1131D4001283AD100202F490870324AD2E9000113
S1131D500022002300F07EF80BD82E4AD2E90001BD
S1131D6001222D4B00F05EF803D264202B49088039
S1131D7023E0284AD2E900010122274B00F06AF847
S1131D800FD8244AD2E900010122254B00F04AF879
S1131D9007D2204AD2E90001FFF7C0FD1F4908809D
S1131DA00BE01C4AD2E9000101221D4B00F052F85D
S1131DB003D841F2883019490880BDE8F08700BF94
S1131DC00000F03F000008400000104000001440F4
S1131DD00000184000001C40000020400000224089
S1131DE0000047407405FF1F7305FF1F7105FF1FA7
S1131DF07005FF1F7605FF1F7505FF1F7705FF1F81
S1131E007205FF1F7805FF1F6605FF1F00002440B1
S1131E10F004FF1F7004FF1F000059405C04FF1F03
S1131E200088B3404FF4001C1CEB410F94BF1CEB23
S1131E30430F09E041EA030C50EA4C0C52EA0C0C43
S1131E4003D2994208BF9042704714BF8B4282422A
S1131E50704700004FF4001C1CEB410F94BF1CEBB7
S1131E60430F09E041EA030C50EA4C0C52EA0C0C13
S1131E7003D28B4208BF8242704714BF99429042FA
S1131E807047000030B45C4B984208D15B4B4FF470
S1131E9040741C605A4B4FF440741C603AE0594B38
S1131EA0984208D1584B4FF440741C60574B4FF480
S1131EB040741C602EE0564B984208D1554B4FF4A9
S1131EC040741C60544B4FF440741C6022E0534B2C
S1131ED0984208D1524B4FF440741C60514B4FF45C
S1131EE040741C6016E0504B984208D14F4B4FF49D
S1131EF040741C604E4B4FF440741C600AE04D4B20
S1131F00984207D14C4B4FF440741C604B4B4FF438
S1131F1040741C60384B984206D1494B1B6853F4FB
S1131F208063474C23602DE0364B984206D1444BE6
S1131F301B6853F40063424C236023E0344B984203
S1131F4006D13F4B1B6853F480533D4C236019E08A
S1131F50324B984206D13A4B1B6853F40053384C29
S1131F6023600FE0304B984206D1364B1B6853F484
S1131F708063344C236005E0324B1B6853F40063E8
S1131F80304C2360C37813F0F303C37000238370D1
S1131F90194B984208D000231A4CA04204D053F0A5
S1131FA00003DBB2002B00D049184FF47A7303FB13
S1131FB001F31401B3FBF4F3047814F0E0049BB2CE
S1131FC01D0A15F01F052C43047043704FF4FA44A6
S1131FD061431201B1FBF2F19BB2B1EB4311827A7E
S1131FE012F0E00411F01F0121438172C17851F015
S1131FF00C01C17030BC704700A0064018C00440FA
S11320001CC0044000B0064010B004400CB00440B2
S113201000C006400CC0044008C0044000D0064084
S113202044B0044040B0044000A00E4060D00440DE
S113203064D0044000B00E4020D0044024D00440BA
S1132040348004402880044002791206FCD5C17112
S1132050704780B5C27852F02002C270C9B208003D
S1132060FFF785FC01BD000070B405001D4EAD1BDB
S113207008D0403D08D0403D08D0403D08D0403D08
S113208008D009E0184C07E0184C05E0184C03E0B0
S1132090184C01E0184CFFE74FF4807544F82150C8
S11320A0012A15D1426901248C4022434261012B4B
S11320B006D10268012313FA01F1114301600EE015
S11320C00268012313FA01F132EA0101016006E01A
S11320D04269012313FA01F132EA0101416170BC42
S11320E07047000000F00F400090044000A004403E
S11320F000B0044000C0044000D00440012A06D1CE
S11321000268012313FA01F11143016006E0026839
S1132110012313FA01F132EA0101016070470069F9
S113212001228A401040C840C0B27047002810D134
S11321309748006850F00060954908609548006829
S113214030F090009349086092480021016001201A
S1132150704701280FD19048006850F000608E4904
S113216008608C48006830F410408A490860894847
S113217000210160EBE70020EAE738B50500002400
S1132180D2B2280000F072F8002D0CD18348006808
S11321900006FBD5824804688048006830F080005F
S11321A07E4908600BE07F4800680006FBD57E4846
S11321B004687C48006830F080007A490860200098
S11321C080B232BD2DE9F04104000D00160032004A
S11321D0D2B229002000FFF7D0FF07003200D2B2AC
S11321E029002000FFF7C9FF80463200D2B229003F
S11321F02000FFF7C2FF01001FFA88F8BFB2B845FC
S113220002D23800474680461FFA88F889B28845CA
S113221001D2404606E0BFB289B28F4201D2080023
S113222000E0380080B2BDE8F0812DE9F8430400F5
S11322300D0016001F005FF000085FF0000909E0C0
S11322403200D2B229002000FFF7BCFF18FA80F850
S113225019F101095FFA89F9FFB2B945F0D3FFB268
S1132260B8FBF7F8404680B2BDE8F28310B50C0025
S11322700021D2B2082A06D00A2A08D00C2A04D097
S1132280102A06D007E0002106E0012104E0022123
S113229002E0032100E00021890011F00C0151F05B
S11322A05001424A1170414904224A703F4941F2A7
S11322B034224A803D4945F278628A8000282AD136
S11322C0042C0BDA14F01F0050F040003749087258
S11322D03649324800F048F8012010BD201F142868
S11322E00AD214F01F0050F04000304908722F4900
S11322F02A4800F039F8EFE71A2C0AD114F01F002D
S113230050F04000294908722849244800F02CF86C
S1132310E2E70020E1E7042C09DA14F01F0050F092
S113232040002249087221491C4800F01DF8201F72
S113233014280AD214F01F0050F040001B49087200
S11323401A49184800F010F8C6E71A2C0AD114F0FC
S11323501F0050F04000154908721449114800F05C
S113236003F8B9E70020B8E70A7882604A78C260C7
S11323704A8882618A88C2618A790262CA79426221
S1132380CA6802650A7A0260497A416070470000AF
S11323903C800440188004403080044000B0034076
S11323A010B0034000B00B4010B00B407804FF1F86
S11323B030B40023DFF8202512684FF47A746243A6
S11323C08A4201D200209EE0802303FB01F3B2FB8A
S11323D0F3F44FF6FF739C4280F017810723C0B2D9
S11323E0002840F09280DFF8F4542C60402404FB71
S11323F001F4B2FBF4F44FF6FF75AC4260D206234D
S1132400C0B2002840F09180DFF8D0542C604C0119
S1132410B2FBF4F44FF6FF75AC4251D20523C0B2BF
S1132420002840F09280DFF8B4542C600C01B2FB19
S1132430F4F44FF6FF75AC4242D20423C0B2002834
S113244040F09380DFF894542C60CC00B2FBF4F499
S11324504FF6FF75AC4233D20323C0B2002840F0DC
S11324609480DFF878542C608C00B2FBF4F44FF6BF
S1132470FF75AC4224D20223C0B2002840F09580FC
S1132480DFF858542C604C00B2FBF4F44FF6FF759F
S1132490AC4215D20123C0B2002840F09680DFF888
S11324A03C542C60B2FBF1F44FF6FF718C4207D21E
S11324B00023C0B2002840F09880DFF820140C609C
S11324C0C0B2002840F0A380DFF81404006850F084
S11324D08070DFF80C140860DBB213F0070050F0D2
S11324E00800DFF8001408600020DFF8FC1308601F
S11324F00020DFF8F8130860DFF8E0030068DFF875
S1132500F0130860012030BC7047C0B2012803D129
S1132510DFF8E0532C6069E7C0B2022803D1DFF88A
S1132520D8532C6062E70020EDE7C0B2012803D144
S1132530DFF8C0532C606AE7C0B2022803D1DFF889
S1132540B8532C6063E70020DDE7C0B2012803D153
S1132550DFF8A0532C6069E7C0B2022803D1DFF88A
S113256098532C6062E70020CDE7C0B2012803D164
S1132570DFF880532C6068E7C0B2022803D1DFF88B
S113258078532C6061E70020BDE7C0B2012803D175
S1132590DFF860532C6067E7C0B2022803D1DFF88C
S11325A058532C6060E70020ADE7C0B2012803D186
S11325B0DFF840532C6066E7C0B2022803D1DFF88D
S11325C038532C605FE700209DE7C0B2012803D197
S11325D0DFF820532C6065E7C0B2022803D1DFF88E
S11325E018532C605EE700208DE7C0B2012803D1A8
S11325F0DFF800130C6063E7C0B2022803D1DFF8F0
S1132600F8120C605CE700207DE700207BE7C0B295
S113261001281ED1DFF8C802006850F00070DFF80E
S1132620C0120860DBB213F0070050F00800DFF8B6
S1132630CC1208600020DFF8C81208600020DFF820
S1132640C4120860DFF8AC020068DFF8BC1208604E
S113265058E7C0B202281ED1DFF8B002006850F07B
S11326608070DFF8A8120860DBB213F0070050F0A6
S11326700800DFF89C1208600020DFF89812086058
S11326800020DFF894120860DFF86C020068DFF8BD
S11326908C12086036E7002035E718B442F2117353
S11326A09A4201D3002060E0C0B200285FD18B4B76
S11326B01B680093009B5B1C5A4342F21073B2FBED
S11326C0F3F2C0B2002823D1C9B20B00002B022BB5
S11326D005D9DB1E5BD05B1E032B68D974E0904BDD
S11326E01B6853F400738E4C23604FF44073C9B2DB
S11326F08C0004F1804414F59224E3602823C9B2C9
S1132700884C44F83130C9B2864B13EBC1035A608C
S1132710C0B2012818D1C9B2002957D1804B1B6817
S113272053F480637E4C23604FF44073C9B27E4CF3
S113273044F821302823C9B27C4C44F83130C9B262
S11327407A4B13EBC1035A60C0B202280CD1C9B250
S113275000293DD12820C9B2754B43F83100C9B2D4
S1132760734810EBC1004260012012BC7047C0B234
S1132770012803D15F4B1B6800939BE7C0B202287A
S113278003D15D4B1B68009394E70020EDE7644B95
S11327901B6853F40063624C23604FF48063C9B236
S11327A08C0004F1804414F596246360A6E75C4B26
S11327B01B6853F480535A4C23604FF48063C9B2AE
S11327C05C4C44F8213099E70020CEE70020CCE7A8
S11327D00020CAE781B042F211739A4201D300206B
S11327E019E0C0B2002818D13C4B1B680093009B31
S11327F05B1C5A4342F21073B2FBF3F2C0B20028DE
S113280023D1C9B2002903D0022919D015D31AE063
S113281049480260012001B07047C0B2012803D1C9
S1132820344B1B680093E2E7C0B2022803D1324B59
S11328301B680093DBE70020EDE740480260E9E70E
S11328403F480260E6E70020E5E7C0B2012805D171
S1132850C9B2364810EBC1004260DBE7C0B20228BF
S113286005D1C9B2324810EBC1004260D2E7002062
S1132870D1E72648006850F08070244908604FF47E
S1132880C060304908604FF4C0602F4908602F4889
S1132890006850F004002D4908602D48006850F08D
S11328A008002B49086000201B4908604FF6FF70A0
S11328B01A4908602648006850F00100244908605D
S11328C02248006850F001002049086000201149A6
S11328D008607047000000006005FF1F4C05FF1FE3
S11328E03C80044000800340048003404C8003404B
S11328F0088003405005FF1F5405FF1F009003404C
S1132900049003404C9003400890034030800440FE
S113291000800B4004800B404C800B4008800B402F
S1132920388004400C80034000A004400C90034015
S11329300C800B4000C0044010800340188003400A
S11329402080034048A004404CA0044054800B4025
S113295080800B402649096808607047244B1B6837
S1132960986023480068C16021480068026170478C
S113297010B51F4909680968081A1E4908601D48EE
S1132980006800F055FA1A490968896800F068FA85
S1132990040017480068406900F04AFA14490968BD
S11329A0C96800F05DFA0100200000F0C5FA0400D7
S11329B00F480068806900F03BFA0D49096809690D
S11329C000F04EFA210000F02BFB00F06BFB0A49EB
S11329D00860074800684069054909688861054836
S11329E000680349096848610348006810BD000095
S11329F06804FF1F4405FF1F4805FF1F2A4A126889
S1132A0052F40002284B1A60284A126832F002027B
S1132A10264B1A60254A126852F00102234B1A60B1
S1132A20C0B20201224BD150C0B2214911EB0011B6
S1132A30896851F00101C0B21D4A12EB0012916085
S1132A40C0B21B4911EB0011896831F00201C0B218
S1132A50174A12EB00108160704780B5C0B2144968
S1132A6011EB0011896851F00201C0B2104A12EB57
S1132A7000129160C0B2002805D002280BD006D302
S1132A8003280CD00EE04420FEF771FF0AE0452035
S1132A90FEF76DFF06E04620FEF769FF02E04720DF
S1132AA0FEF765FF01BD00003C8004400070034058
S1132AB00071034090420CD141EA030C50EA4C0CE3
S1132AC007D0994205D14FF4001C1CEB410F38BFCD
S1132AD08942704770B44FF0004591EA030C44BF3B
S1132AE06B4000F001BB00BF841A71EB030603D2F4
S1132AF0001BB141121973414FF4001C1CEB410F30
S1132B0034BF7CEB430443E00C0DA4EB1356352E89
S1132B1050DC45EAC323DB0A45EAC121C912B6F1F8
S1132B2020050DDD63FA05F6EB4086EA0305124243
S1132B3018BF45F00105C01851F100010CD213E093
S1132B4062FA06F5F2405540F3415A40B340F3406F
S1132B505A408018594107D349085FEA30005FEAB8
S1132B60350528BF45F0010501F58011420875F1CE
S1132B70004250F1000041EB045170BC4FF4001CC2
S1132B801CEB410F38BF70470020090D0905704741
S1132B901CEB410F10D252EA43060BD0BCEB410FA1
S1132BA005D80C0DAB43661E342EB5DD02E0AB43F5
S1132BB08018594170BC704770BC7047010040F1E7
S1132BC00780F446404200F003F851F000416047AA
S1132BD009D0B0FA80F18840C91CC1F584610905A7
S1132BE001EBD02140057047F0B540F2FF7581EA52
S1132BF0030C0CF0004C15EA11541DBF15EA1357D1
S1132C00AC42AF42E5E0BC41C1F31301C3F313038B
S1132C10801A994143F4801304D2641E4000494150
S1132C2080185941C90241EA5051B1FBF3F603FB44
S1132C301611A2FB0675D7EBC020A94102D2761E5D
S1132C4080185941C90241EA5051B1FBF3FE03FB1C
S1132C501E11A2FB0E75D7EBC020A94103D2AEF121
S1132C60010E80185941890241EA9051760546EADD
S1132C708E2EB1FBF3F603FB1611A2FB0675D7EB00
S1132C808020A94102D2761E80185941C90241EA26
S1132C9050514EEA060EB1FBF3F603FB1611A2FBEC
S1132CA00675D7EBC020A94102D2761E801859417F
S1132CB0C90241EA5051B1FBF3F703FB1711A2FB20
S1132CC00735D3EBC020A94167F100070CBF0042D0
S1132CD047F0010766F3D5274FEA1E31B80814F50B
S1132CE0806412DDBD0775F1004250EB0E5051EBCC
S1132CF0045111F5801F5CBF41EA0C01F0BD4CF09A
S1132D007F6141F0E0410020F0BDBD076D0840EA5D
S1132D100E5041F48011D4F10104B4F120060ADA12
S1132D20C4F120060200E04001FA06F3E140184332
S1132D30B24015430EE0342C13DCC6F1200445EAFE
S1132D4040056D0820FA06F2154321FA06F0A14069
S1132D500D43002175F1004250F1000051EB0C01CC
S1132D60F0BD00205FEA0C01F0BDCFB992185B41C1
S1132D70B3FA83F704BFB2FA82F6BF190B3FB7F177
S1132D8020062FBF02FA06F3BB40C7F1200622FA41
S1132D9006F638BF3343BA401CB1E419641E33E766
S1132DA07F4231F00041B1FA81F404BFB0FA80F6F9
S1132DB0A4190B3CB4F120062FBF00FA06F1A14080
S1132DC0C4F1200620FA06F638BF3143A0403C1B6C
S1132DD01AE7AC421ABF05EA1357AF4212E050EAB1
S1132DE041061CBF52EA4306BFE750EA410730469A
S1132DF061461CBF41EA0551F0BD52EA430C08BFCD
S1132E00C143F0BD00204FF4001616EB410F98BFEC
S1132E1016EB430F08BF16EB410F24BFC14305E077
S1132E2016EB430F0CBF61464CEA0551F0BD0000A0
S1132E30002840F10780F446404200F003F850F0C7
S1132E40004060470AD0B0FA80F18840D1F19D017A
S1132E50C905020672F1004241EB102070470000E0
S1132E60FF2212EAD05C1DBF12EAD153944593426B
S1132E702BE09C44D30780EA01021A4043EA002075
S1132E8043EA0121A1FB0030410038BF40007CF13E
S1132E907F010BDBFE294ADA5B0842EAC15153EA9F
S1132EA0006373F1004C51EB10207047D1F1080C12
S1132EB0DCF120012FDB5B0810FA01F10B4373F105
S1132EC0004120FA0CF05041704794451CBF02EABF
S1132ED0D153934280EA010202F000421DD0400027
S1132EE019D0490017D05BB9634514D00902B1FA6F
S1132EF081F39940BCEB030CC00140F00040C1E7F2
S1132F000002B0FA80FC10FA0CF0B3EB0C0CC9010F
S1132F1041F00041B6E71000704740000AD0490074
S1132F2008D010F1807F94BF11F1807F02E042F05D
S1132F30FF407047D043704790EA010F44BF81F0CF
S1132F40004100F075B800BF431A4FF000423EBF85
S1132F505340C01AC91800BFD3095FEAD05C13EB11
S1132F60400F34BFB3EB410F40E07CEBD1530CD3A3
S1132F7042EA012122D8D1EB402009D3400A28BFDC
S1132F805FEA500140EBCC507047401A15D0400224
S1132F90B0FA80F2521C9040400A4FEA3C23B3EB53
S1132FA0026384BF00EB730007E040F400001A16CC
S1132FB0DB07C2F10102D04018437047182BFCDC38
S1132FC031FA03F202FA03F3591A38BF42F001024C
S1132FD0D2EB40203CBF4000ACF1010C5FEACC5C7A
S1132FE0C20572F100414CEB5020704713EB400FC7
S1132FF00FD24B0009D0ACEBD153022B03DB4902B7
S1133000172BDDDD70479143401A4300D5D10020D2
S1133010704713EB410FD0D36FF0000070470000EE
S113302090EA010F44BF81F00041FFF78DBF00BF5C
S1133030421A3CBF801A89184FF0004CC0F3C752A3
S1133040FF2A24D0C1F3C75313B3D21AD2F1190300
S113305027DD4CEA01214CFA03F321EA0303D140B2
S1133060C20D4CEA0020401834BF20EA0C004CEAA0
S11330705000D20553EA006373EB0C0C52EB1020A2
S1133080420012F1807F38BF7047C00DC005704701
S1133090490212BF9A4200EB5120F8E7D2F117031C
S11330A0D9D570474100090E7F3915D4D1F11F01DC
S11330B014D4400007D2C00140F00040C84048BFCB
S11330C06FF000407047C00140F00040C8404CBF62
S11330D04FF00040404270470020704700424FF0DC
S11330E0004058BFC0437047841A71EB030604D2F2
S11330F06E40001BB141121973414FF4001C1CEBCC
S1133100410F34BF7CEB430684E00C0DA4EB135653
S1133110362E7DDC012E43DC45EAC32343EA5253B9
S113312012BFD20292025B08240545EAC12141EA9A
S11331305051D2EBC020994125D407D1B0FA80F682
S113314010FA06F164D00020203608E0B1FA81F6C6
S1133150B140C6F1200220FA02F21143B0404FEA16
S1133160F474B4EB465434F001064FEA74040AD8FC
S1133170D6F50016760D04F00044F04061FA06F22C
S11331805040F1404840C00A40EA415021F000411B
S113319028BF5FEA500550F1000044EBD12137E02D
S11331A045EAC323DB0A45EAC121C90AB6F1200571
S11331B00EDD42EA0242120CC5F1200603FA06F6BD
S11331C0EB4042EA06056D42984161F100010DE0D1
S11331D062FA06F5F240554063FA06FC82EA0C02F4
S11331E0F3405A406D42904161EB030111F4801F9A
S11331F005D1641E620502D06D004041494121F4AD
S11332008011430875F1004350F1000041EB045173
S113321070BC70471CEB410F15D223F0004352EAF7
S113322043060BD04FEA4C0CBCEB410F04D80C0DF9
S1133230661E342EB7DDEBE7801A994150EA410649
S113324008BF0021E4E708BF1CEB430F28BF6FF061
S11332500001DDE780B572B60120DFF8A015087023
S11332600020DFF89C150860DFF898050078012835
S113327040F0C780DFF890050078002840F0C18056
S1133280DFF888050078002840F0BB80DFF880056F
S11332900088401CDFF878150880DFF87405008882
S11332A001280ED10120DFF86C1508700020DFF82A
S11332B05015086000221921DFF85C05FEF71EFF97
S11332C09FE0DFF84C05008802280CDBDFF840059E
S11332D00088DFF848150988884204D20020DFF806
S11332E0201508608DE0DFF834050088401CDFF805
S11332F020150880DFF82805B0F9000010F5E1700A
S1133300DFF82015B1F9001088422BDB0120DFF82B
S1133310181508700120DFF8FC140870012204213C
S1133320DFF80805FEF7EAFE00220621DFF8FC04B8
S1133330FEF7E4FE4FF47A70FFF70CFB00225FF017
S11333407C51DFF8EC04FFF709FBDFF8E8040068C0
S1133350FFF70EFB00B200F5A0505030DFF8A014C8
S1133360086031E0DFF8B804B0F9000010F5E1704E
S1133370DFF8B014B1F90010884225DA0020DFF834
S11333809414087000220421DFF8A004FEF7B6FEAE
S113339001220621DFF89404FEF7B0FEDFF898045A
S11333A0FFF7D8FA00225FF07C51DFF88404FFF7BE
S11333B0D5FADFF880040068FFF7DAFA00B2B0F556
S11333C09650DFF83C140860DFF87004B0F9000090
S11333D0022816DADFF83C040078002811D1012213
S11333E01921DFF83404FEF789FE0020DFF81014F9
S11333F008600020DFF8181408800020DFF80414A7
S11334000870DFF83C040078012840F0CE80DFF833
S113341034040078002840F0C880DFF8F003007816
S1133420002840F0C280DFF8E8030088401CDFF881
S1133430E0130880DFF8D803008801280AD10020AF
S1133440DFF8BC13086000221921DFF8CC03FEF773
S113345055FEAAE0DFF8B803008802280CDBDFF889
S1133460B0030088DFF8B4130988884204D200202E
S1133470DFF88C13086098E0DFF8A0030088401C94
S1133480DFF88C130880DFF89C03B0F9000010F11A
S1133490DC0F27DB0120DFF8B013087000220421C1
S11334A0DFF88803FEF72AFE01220621DFF87C03F9
S11334B0FEF724FE7FF06300FFF74CFA0022DFF8EA
S11334C08C13DFF88C03FFF749FADFF86803006810
S11334D0FFF74EFA00B2DFF87C130818DFF8201368
S11334E008604AE0DFF83C03B0F9000010F5AF7063
S11334F0832827D20120DFF850130870002204210A
S1133500DFF82803FEF7FAFD01220621DFF81C0389
S1133510FEF7F4FD7FF00100FFF71CFA0022DFF84C
S11335203813DFF82C03FFF719FADFF81003B0F9AA
S11335300000FFF71DFA00B2B0F57A60DFF8C012A0
S113354008601AE0DFF8DC02B0F900007FF4AE7125
S1133550884212DA0020DFF8F012087001220421F8
S1133560DFF8C802FEF7CAFD00220621AF48FEF7C5
S1133570C5FDDFF8E802A2490860B048B0F90000D0
S113358010F1010F11DBB048007800280DD10122A1
S11335901921A148FEF7B2FD0020994908600020D6
S11335A09B4908800020A6490870AD48007801288E
S11335B025D10020AA4908700020934908700120F1
S11335C0A04908700120A74908705820FEF717FA8F
S11335D05B20FEF7CCF9002093490870002098493D
S11335E008700020A0490870002089490880002044
S11335F083490860012219218748FEF77FFD9B4813
S1133600007801281CD100209849087001207E49C7
S1133610087000208B4908705B20FEF7F0F95820F1
S1133620FEF7A5F900207A49088000207449086053
S1133630012219217848FEF761FD002071490870C4
S11336406F48006842F20F71884203DB42F20F7048
S11336506B4908606A4800688549884202DA8548EF
S11336606749086066480068002805D56448006812
S113367040428149086003E0614800687E4908606F
S11336807D48026802210020FFF7A4F87B480078F7
S113369001280ED17A480088411C794A118080B2F1
S11336A0B0F57A7F05DD0020744908700020744964
S11336B0088074480078401C72490870714800788A
S11336C0012807D014D303280DD006D305280CD025
S11336D00AD30DE0FDF7B8FF0AE06B480088401CF0
S11336E06949088004E003E002E0002065490870AD
S11336F06548B0F90000C8281FD10020624908803D
S113370014230C2207210120FEF78FFD5F49086076
S11337105E480068B0F5FA7F03DC01205C4908705C
S113372002E000205A49087059480078012804D161
S1133730012203215748FEF7E1FC5748006850F086
S11337400100554908600020FFF787F962B601BD02
S113375072B65248007801281CD15148007880067E
S113376018D55048007850490978504A88544E4832
S11337700078401C4C4908704B4800784B4940186D
S113378010F8010C2A2805D10020444908700020B3
S11337904549087062B6704745480068401C444972
S11337A008604448006830F080004249086070476F
S11337B072B602204049086030480078002804D1DD
S11337C027480078401C2649087001202B490870BE
S11337D062B6704772B65FF0807038490860274857
S11337E00078002804D121480078401C1F49087043
S11337F001202249087062B6704700007B05FF1F54
S1133800D804FF1F7505FF1F8205FF1F8A05FF1FD0
S11338106805FF1F7C05FF1F00F10F405C04FF1FBC
S11338206E05FF1F6605FF1F8305FF1F80F00F4015
S1133830CDCC0C40F804FF1F18FCFFFF6405FF1FEC
S11338407705FF1F8105FF1F8405FF1F6666663F1E
S11338506666E63F02EFFFFFCDCCCC3DA8E4FFFF58
S11338607E05FF1F8005FF1F7D05FF1F7F05FF1FCE
S1133870F2D8FFFFF1D8FFFFDC04FF1F7A05FF1F1A
S11338806A05FF1F7905FF1F6C05FF1FE004FF1F7A
S11338908505FF1F40F00F400C7103405E04FF1FBD
S11338A004D0064007D006408605FF1FE404FF1F2E
S11338B0F004FF1F00900340A0A00440A0D00440E7
S11338C000000000000000000000000000000000F4
S11338D0000000F800000000000000333000000089
S11338E000100C06100C0600000000000000000090
S11338F040C07840C0784000043F04043F04040002
S1133900007088FC08300000001820FF211E000011
S1133910F008F000E018000000211C031E211E0026
S113392000F00888700000001E21232419272110AC
S113393010160E000000000000000000000000004F
S1133940000000E0180402000000000718204000F6
S113395000020418E00000000040201807000000E6
S1133960404080F0804040000202010F010202004A
S1133970000000F0000000000101011F010101002E
S1133980000000000000000080B070000000000093
S1133990000000000000000000010101010101011C
S11339A000000000000000000030300000000000B3
S11339B00000000080601804006018060100000088
S11339C000E010080810E000000F102020100F0085
S11339D0001010F8000000000020203F202000000C
S11339E00070080808887000003028242221300064
S11339F000300888884830000018202020110E006C
S1133A000000C02010F8000000070424243F240014
S1133A1000F80888880808000019212020110E00E9
S1133A2000E0108888180000000F112020110E00FB
S1133A3000380808C83808000000003F00000000F3
S1133A400070880808887000001C222121221C00B4
S1133A5000E010080810E0000000312222110F00DD
S1133A60000000C0C0000000000000303000000072
S1133A7000000080000000000000806000000000E2
S1133A8000008040201008000001020408102000FB
S1133A904040404040404000040404040404040046
S1133AA000081020408000000020100804020100DB
S1133AB0007048080808F0000000003036010000DB
S1133AC0C030C828E810E0000718272423140B008E
S1133AD00000C038E0000000203C23020227382008
S1133AE008F8888888700000203F202020110E00EC
S1133AF0C0300808080838000718202020100800E3
S1133B0008F808080810E000203F202020100F00CB
S1133B1008F88888E8081000203F20202320180097
S1133B2008F88888E8081000203F200003000000FF
S1133B30C03008080838000007182020221E0200A0
S1133B4008F808000008F808203F210101213F205F
S1133B50000808F8080800000020203F202000008A
S1133B6000000808F8080800C08080807F0000007A
S1133B7008F888C028180800203F200126382000B3
S1133B8008F8080000000000203F2020202030001A
S1133B9008F8F800F8F80800203F003F003F200034
S1133BA008F830C00008F808203F200007183F003C
S1133BB0E01008080810E0000F10202020100F006B
S1133BC008F808080808F000203F2101010100005E
S1133BD0E01008080810E0000F18242438504F00A3
S1133BE008F8888888887000203F2000030C302063
S1133BF000708808080838000038202121221C00A1
S1133C00180808F8080818000000203F20000000E9
S1133C1008F808000008F808001F202020201F00D2
S1133C200878880000C83808000007380E01000032
S1133C30F80800F80008F800033C0700073C0300FC
S1133C40081868808068180820302C03032C302062
S1133C500838C800C83808000000203F20000000D1
S1133C6010080808C8380800203826212020180029
S1133C70000000FE020202000000007F40404000FD
S1133C80000C30C000000000000000010638C00035
S1133C9000020202FE000000004040407F000000DD
S1133CA00000040202020400000000000000000002
S1133CB00000000000000000808080808080808000
S1133CC000020204000000000000000000000000E8
S1133CD000008080808000000019242222223F20DE
S1133CE008F8008080000000003F112020110E0021
S1133CF00000008080800000000E112020201100B0
S1133D00000000808088F800000E112020103F2061
S1133D100000808080800000001F222222221300E5
S1133D20008080F0888888180020203F2020000030
S1133D300000808080808000006B949494936000E5
S1133D4008F8008080800000203F210000203F20F0
S1133D5000809898000000000020203F20200000F0
S1133D60000000809898000000C08080807F0000E0
S1133D7008F8000080808000203F24022D302000BD
S1133D80000808F8000000000020203F2020000068
S1133D908080808080808000203F20003F20003F82
S1133DA08080008080800000203F210000203F2090
S1133DB00000808080800000001F202020201F0041
S1133DC0808000808000000080FFA12020110E0070
S1133DD00000008080808000000E112020A0FF8061
S1133DE0808080008080800020203F21200001000E
S1133DF00000808080808000003324242424190063
S1133E00008080E0808000000000001F202000006F
S1133E108080000000808000001F202020103F20B0
S1133E20808080000080808000010E300806010040
S1133E3080800080008080800F300C030C300F00E5
S1133E4000808000808080000020312E0E31200010
S1133E50808080000080808080818E701806010040
S1133E6000808080808080000021302C222130005E
S1133E7000000000807C020200000000003F40407F
S1133E8000000000FF00000000000000FF00000030
S1133E900002027C800000000040403F000000005F
S1133EA000060101020204040000000000000000FA
S1133EB0DFF800F01104FF1F80B57348006850F468
S1133EC07850714908601021052000F02FF86F49DF
S1133ED008606E4800684FF47A7148436C49086082
S1133EE06B4800686B490968C1F30361491CB0FB66
S1133EF0F1F06949086000F003F800F00CF801BD26
S1133F006648006850F480506449086064484FF47F
S1133F10E061016070476348006850F00100614946
S1133F20086061484FF4A0610160704780B50A00E1
S1133F30C0B2092801D30020A4E0D2B2112A01D3CF
S1133F4001209FE0594A00231370594A126852F025
S1133F508052574B1A60574A127852F08002554BE0
S1133F601A70554A98231370544A1278D206FBD417
S1133F70524A1278C2F38102D2B2022AF8D1504ACC
S1133F800E2313704F4A00231370C0B200280BD0C5
S1133F9002281FD013D3042832D026D3062845D0B4
S1133FA039D307284DD056E00123002200210020F8
S1133FB0FFF77EFF43484121017032214BE0032388
S1133FC0012201210020FFF773FF3E485A210170AE
S1133FD0642140E00323012201210020FFF768FF50
S1133FE0384858210170782135E00123002200214E
S1133FF00020FFF75DFF33484021017030212AE0A3
S11340000523022202210020FFF752FF2D484F21F1
S1134010017096211FE00723022202210020FFF7EE
S113402047FF28485E210170B42114E007230222CF
S113403002210020FFF73CFF22485E210170CF21BE
S113404009E00823022202210020FFF731FF1D4866
S11340505E210170E121194800788006FBD51748DC
S113406000784006FBD51448007810F03F00124A4F
S1134070107012480078C0F38100C0B20328F8D150
S11340800800C0B202BD0000388004405C05FF1F78
S11340905805FF1F448004406005FF1F048004404E
S11340A018900440408004400CB004400140064095
S11340B03480044008C007400040064006400640E3
S11340C0044006400540064080B500F055F800F075
S11340D005F8FFF7F1FEFCF7B9F901BD80B51C48FE
S11340E01C4988420BD0002006E01949194A52F8AD
S11340F0202041F82020401CB0F5826FF5D31448ED
S1134100FDF732FC1449154A1548801A03E0137868
S11341100B70521C491C0300581E002BF7D1114987
S11341201148401A02E000220A70491C0200501E85
S1134130002AF8D10D490E4A0E48801A03E013787C
S11341400B70521C491C0300581E002BF7D101BDF3
S11341500000FF1F000000005C04FF1F88420000F5
S11341609C4200007004FF1F8B05FF1F1004FF1FFB
S1134170B0410000FC41000080B500F009F80A4895
S113418000884FF6FE7108400749088001BD000011
S113419072B606484CF22051018004484DF62811AD
S11341A0018062B670470000002005400E200540E3
S11341B070B4104C24680F4D2D6855F47F050D4ED6
S11341C03560090611F0706151EA0070110511F4AF
S11341D070010843190411F470210843064908606A
S11341E0002000E0401CC0B29842FBD301480460A8
S11341F070BC704700F001404480044010B507498A
S113420079441831064C7C44163404E00A68081DCD
S1134210511888470146A142F8D110BD080000009A
S113422014000000D7D6FFFF1C0100007004FF1F1C
S11342300000000000F00BF8002801D0FFF7DEFFBB
S11342400020C046C046FCF701F900F002F8012046
S1134250704700F001B800000746384600F002F845
S1134260FBE7000080B5C046C046024A1100182092
S1134270ABBEFBE7260002006E726632346C30314E
S113428020657272000000006400010034431010C5
S1134290010000002805FF1F000000006E72663256
S11342A0346C3031206F6B00C046C046C046C046F7
S11342B0FFF7C0FF536F6B3A000000006669723A63
S10F42C000000000A5A5A5A5A5000000B5
S90342A911
